{
  "contractName": "AuthPrivacyChain",
  "abi": [
    {
      "inputs": [],
      "stateMutability": "nonpayable",
      "type": "constructor"
    },
    {
      "anonymous": false,
      "inputs": [
        {
          "components": [
            {
              "internalType": "uint256",
              "name": "a0",
              "type": "uint256"
            },
            {
              "internalType": "uint256",
              "name": "N",
              "type": "uint256"
            },
            {
              "internalType": "uint256[]",
              "name": "user_ids",
              "type": "uint256[]"
            },
            {
              "internalType": "uint256[]",
              "name": "nonces",
              "type": "uint256[]"
            }
          ],
          "indexed": true,
          "internalType": "struct AuthPrivacyChain.RsaAccumulator",
          "name": "acc",
          "type": "tuple"
        }
      ],
      "name": "AccumulatorCreated",
      "type": "event"
    },
    {
      "anonymous": false,
      "inputs": [
        {
          "indexed": true,
          "internalType": "uint256",
          "name": "user_id",
          "type": "uint256"
        }
      ],
      "name": "DataUserCreated",
      "type": "event"
    },
    {
      "inputs": [],
      "name": "acc",
      "outputs": [
        {
          "internalType": "uint256",
          "name": "a0",
          "type": "uint256"
        },
        {
          "internalType": "uint256",
          "name": "N",
          "type": "uint256"
        }
      ],
      "stateMutability": "view",
      "type": "function",
      "constant": true
    },
    {
      "inputs": [
        {
          "internalType": "uint256",
          "name": "",
          "type": "uint256"
        }
      ],
      "name": "datausers",
      "outputs": [
        {
          "internalType": "string",
          "name": "",
          "type": "string"
        }
      ],
      "stateMutability": "view",
      "type": "function",
      "constant": true
    },
    {
      "inputs": [],
      "name": "default_acc",
      "outputs": [
        {
          "internalType": "uint256",
          "name": "a0",
          "type": "uint256"
        },
        {
          "internalType": "uint256",
          "name": "N",
          "type": "uint256"
        }
      ],
      "stateMutability": "view",
      "type": "function",
      "constant": true
    },
    {
      "inputs": [
        {
          "internalType": "uint256",
          "name": "",
          "type": "uint256"
        }
      ],
      "name": "directsharing",
      "outputs": [
        {
          "internalType": "string",
          "name": "",
          "type": "string"
        }
      ],
      "stateMutability": "view",
      "type": "function",
      "constant": true
    },
    {
      "inputs": [
        {
          "internalType": "uint256",
          "name": "",
          "type": "uint256"
        }
      ],
      "name": "ds_acc_mapping",
      "outputs": [
        {
          "internalType": "uint256",
          "name": "a0",
          "type": "uint256"
        },
        {
          "internalType": "uint256",
          "name": "N",
          "type": "uint256"
        }
      ],
      "stateMutability": "view",
      "type": "function",
      "constant": true
    },
    {
      "inputs": [
        {
          "internalType": "uint256",
          "name": "",
          "type": "uint256"
        }
      ],
      "name": "ids_acc_mapping",
      "outputs": [
        {
          "internalType": "uint256",
          "name": "a0",
          "type": "uint256"
        },
        {
          "internalType": "uint256",
          "name": "N",
          "type": "uint256"
        }
      ],
      "stateMutability": "view",
      "type": "function",
      "constant": true
    },
    {
      "inputs": [
        {
          "internalType": "uint256",
          "name": "",
          "type": "uint256"
        }
      ],
      "name": "indirectsharing",
      "outputs": [
        {
          "internalType": "string",
          "name": "",
          "type": "string"
        }
      ],
      "stateMutability": "view",
      "type": "function",
      "constant": true
    },
    {
      "inputs": [
        {
          "internalType": "string",
          "name": "a",
          "type": "string"
        },
        {
          "internalType": "string",
          "name": "b",
          "type": "string"
        }
      ],
      "name": "compareStrings",
      "outputs": [
        {
          "internalType": "bool",
          "name": "",
          "type": "bool"
        }
      ],
      "stateMutability": "pure",
      "type": "function",
      "constant": true
    },
    {
      "inputs": [
        {
          "internalType": "uint256",
          "name": "user_id",
          "type": "uint256"
        },
        {
          "internalType": "string",
          "name": "user_type",
          "type": "string"
        },
        {
          "internalType": "string",
          "name": "du",
          "type": "string"
        }
      ],
      "name": "createDataUser",
      "outputs": [],
      "stateMutability": "nonpayable",
      "type": "function"
    },
    {
      "inputs": [
        {
          "internalType": "uint256",
          "name": "user_id",
          "type": "uint256"
        }
      ],
      "name": "getDataUser",
      "outputs": [
        {
          "internalType": "string",
          "name": "",
          "type": "string"
        }
      ],
      "stateMutability": "view",
      "type": "function",
      "constant": true
    },
    {
      "inputs": [
        {
          "internalType": "uint256",
          "name": "user_id",
          "type": "uint256"
        },
        {
          "internalType": "string",
          "name": "ds",
          "type": "string"
        }
      ],
      "name": "setDirectSharing",
      "outputs": [],
      "stateMutability": "nonpayable",
      "type": "function"
    },
    {
      "inputs": [
        {
          "internalType": "uint256",
          "name": "user_id",
          "type": "uint256"
        }
      ],
      "name": "getDirectSharing",
      "outputs": [
        {
          "internalType": "string",
          "name": "",
          "type": "string"
        }
      ],
      "stateMutability": "view",
      "type": "function",
      "constant": true
    },
    {
      "inputs": [
        {
          "internalType": "uint256",
          "name": "user_id",
          "type": "uint256"
        },
        {
          "internalType": "string",
          "name": "ds",
          "type": "string"
        }
      ],
      "name": "setInDirectSharing",
      "outputs": [],
      "stateMutability": "nonpayable",
      "type": "function"
    },
    {
      "inputs": [
        {
          "internalType": "uint256",
          "name": "user_id",
          "type": "uint256"
        }
      ],
      "name": "getInDirectSharing",
      "outputs": [
        {
          "internalType": "string",
          "name": "",
          "type": "string"
        }
      ],
      "stateMutability": "view",
      "type": "function",
      "constant": true
    },
    {
      "inputs": [
        {
          "internalType": "string",
          "name": "user_type",
          "type": "string"
        },
        {
          "internalType": "uint256",
          "name": "user_id",
          "type": "uint256"
        }
      ],
      "name": "getAccumulator",
      "outputs": [
        {
          "components": [
            {
              "internalType": "uint256",
              "name": "a0",
              "type": "uint256"
            },
            {
              "internalType": "uint256",
              "name": "N",
              "type": "uint256"
            },
            {
              "internalType": "uint256[]",
              "name": "user_ids",
              "type": "uint256[]"
            },
            {
              "internalType": "uint256[]",
              "name": "nonces",
              "type": "uint256[]"
            }
          ],
          "internalType": "struct AuthPrivacyChain.RsaAccumulator",
          "name": "",
          "type": "tuple"
        }
      ],
      "stateMutability": "view",
      "type": "function",
      "constant": true
    },
    {
      "inputs": [
        {
          "internalType": "string",
          "name": "user_type",
          "type": "string"
        },
        {
          "internalType": "uint256",
          "name": "user_id",
          "type": "uint256"
        },
        {
          "internalType": "uint256",
          "name": "a0",
          "type": "uint256"
        },
        {
          "internalType": "uint256",
          "name": "N",
          "type": "uint256"
        },
        {
          "internalType": "uint256[]",
          "name": "user_ids",
          "type": "uint256[]"
        },
        {
          "internalType": "uint256[]",
          "name": "nonces",
          "type": "uint256[]"
        }
      ],
      "name": "setAccumulator",
      "outputs": [],
      "stateMutability": "nonpayable",
      "type": "function"
    }
  ],
  "bytecode": "0x60806040526000600d556000600e556000600f553480156200002057600080fd5b507f6f2e6938952a317dd6fd3f2ccab9e043006b4ff1807acdfd68f00273636e03d560008001819055507f7d4da9f6aa32036d7eea8db8d35a19d3699b689372e4da1773a8143bc3293767600060010181905550600067ffffffffffffffff811115620000925762000091620002ac565b5b604051908082528060200260200182016040528015620000c15781602001602082028036833780820191505090505b5060006002019080519060200190620000dc9291906200023b565b50600067ffffffffffffffff811115620000fb57620000fa620002ac565b5b6040519080825280602002602001820160405280156200012a5781602001602082028036833780820191505090505b5060006003019080519060200190620001459291906200023b565b506000800154600460000181905550600060010154600460010181905550600067ffffffffffffffff811115620001815762000180620002ac565b5b604051908082528060200260200182016040528015620001b05781602001602082028036833780820191505090505b5060046002019080519060200190620001cb9291906200023b565b50600067ffffffffffffffff811115620001ea57620001e9620002ac565b5b604051908082528060200260200182016040528015620002195781602001602082028036833780820191505090505b5060046003019080519060200190620002349291906200023b565b50620002db565b8280548282559060005260206000209081019282156200027a579160200282015b82811115620002795782518255916020019190600101906200025c565b5b5090506200028991906200028d565b5090565b5b80821115620002a85760008160009055506001016200028e565b5090565b7f4e487b7100000000000000000000000000000000000000000000000000000000600052604160045260246000fd5b611f0380620002eb6000396000f3fe608060405234801561001057600080fd5b50600436106101005760003560e01c80637c00136c11610097578063bed34bba11610066578063bed34bba146102e6578063d5c97dd514610316578063e98df82614610335578063f0b23ae71461036557610100565b80637c00136c1461025f5780637da1365e1461027b5780638bb726471461029a578063b6be9f11146102b657610100565b806344f9508e116100d357806344f9508e146101b25780634ade0eca146101e2578063586269da1461021257806371e67dfe1461024357610100565b806302170795146101055780632f036f07146101355780632f5120941461016657806344911e0a14610196575b600080fd5b61011f600480360381019061011a91906115a2565b610395565b60405161012c9190611726565b60405180910390f35b61014f600480360381019061014a9190611748565b6108bf565b60405161015d929190611784565b60405180910390f35b610180600480360381019061017b9190611748565b6108e3565b60405161018d9190611835565b60405180910390f35b6101b060048036038101906101ab919061191f565b610983565b005b6101cc60048036038101906101c79190611748565b610bd0565b6040516101d99190611835565b60405180910390f35b6101fc60048036038101906101f79190611748565b610c70565b6040516102099190611835565b60405180910390f35b61022c60048036038101906102279190611748565b610d38565b60405161023a929190611784565b60405180910390f35b61025d60048036038101906102589190611a00565b610d5c565b005b61027960048036038101906102749190611a8b565b610f73565b005b610283610fb7565b604051610291929190611784565b60405180910390f35b6102b460048036038101906102af9190611a8b565b610fc9565b005b6102d060048036038101906102cb9190611748565b61100d565b6040516102dd9190611835565b60405180910390f35b61030060048036038101906102fb9190611ae7565b6110ad565b60405161030d9190611b7a565b60405180910390f35b61031e611106565b60405161032c929190611784565b60405180910390f35b61034f600480360381019061034a9190611748565b611118565b60405161035c9190611835565b60405180910390f35b61037f600480360381019061037a9190611748565b6111e0565b60405161038c9190611835565b60405180910390f35b61039d6112a8565b6103dc836040518060400160405280600681526020017f64697265637400000000000000000000000000000000000000000000000000008152506110ad565b156105c1576000600b60008481526020019081526020016000206001015414156104d857600460405180608001604052908160008201548152602001600182015481526020016002820180548060200260200160405190810160405280929190818152602001828054801561047057602002820191906000526020600020905b81548152602001906001019080831161045c575b50505050508152602001600382018054806020026020016040519081016040528092919081815260200182805480156104c857602002820191906000526020600020905b8154815260200190600101908083116104b4575b50505050508152505090506108b9565b600b600083815260200190815260200160002060405180608001604052908160008201548152602001600182015481526020016002820180548060200260200160405190810160405280929190818152602001828054801561055957602002820191906000526020600020905b815481526020019060010190808311610545575b50505050508152602001600382018054806020026020016040519081016040528092919081815260200182805480156105b157602002820191906000526020600020905b81548152602001906001019080831161059d575b50505050508152505090506108b9565b610600836040518060400160405280600881526020017f696e6469726563740000000000000000000000000000000000000000000000008152506110ad565b156107e5576000600c60008481526020019081526020016000206001015414156106fc57600460405180608001604052908160008201548152602001600182015481526020016002820180548060200260200160405190810160405280929190818152602001828054801561069457602002820191906000526020600020905b815481526020019060010190808311610680575b50505050508152602001600382018054806020026020016040519081016040528092919081815260200182805480156106ec57602002820191906000526020600020905b8154815260200190600101908083116106d8575b50505050508152505090506108b9565b600c600083815260200190815260200160002060405180608001604052908160008201548152602001600182015481526020016002820180548060200260200160405190810160405280929190818152602001828054801561077d57602002820191906000526020600020905b815481526020019060010190808311610769575b50505050508152602001600382018054806020026020016040519081016040528092919081815260200182805480156107d557602002820191906000526020600020905b8154815260200190600101908083116107c1575b50505050508152505090506108b9565b600060405180608001604052908160008201548152602001600182015481526020016002820180548060200260200160405190810160405280929190818152602001828054801561085557602002820191906000526020600020905b815481526020019060010190808311610841575b50505050508152602001600382018054806020026020016040519081016040528092919081815260200182805480156108ad57602002820191906000526020600020905b815481526020019060010190808311610899575b50505050508152505090505b92915050565b600c6020528060005260406000206000915090508060000154908060010154905082565b6009602052806000526040600020600091509050805461090290611bc4565b80601f016020809104026020016040519081016040528092919081815260200182805461092e90611bc4565b801561097b5780601f106109505761010080835404028352916020019161097b565b820191906000526020600020905b81548152906001019060200180831161095e57829003601f168201915b505050505081565b6109c2866040518060400160405280600681526020017f64697265637400000000000000000000000000000000000000000000000000008152506110ad565b15610a60576109cf6112a8565b848160000181815250508381602001818152505082816040018190525081816060018190525080600b600088815260200190815260200160002060008201518160000155602082015181600101556040820151816002019080519060200190610a399291906112d0565b506060820151816003019080519060200190610a569291906112d0565b5090505050610bc8565b610a9f866040518060400160405280600881526020017f696e6469726563740000000000000000000000000000000000000000000000008152506110ad565b15610b3d57610aac6112a8565b848160000181815250508381602001818152505082816040018190525081816060018190525080600c600088815260200190815260200160002060008201518160000155602082015181600101556040820151816002019080519060200190610b169291906112d0565b506060820151816003019080519060200190610b339291906112d0565b5090505050610bc8565b836000800181905550826000600101819055508160006002019080519060200190610b699291906112d0565b508060006003019080519060200190610b839291906112d0565b506000604051610b939190611d7f565b60405180910390207fcbbf24a232489aaf0e59d94a6be52f4b66d625c2ccf5c780dcb4f6ef73c2c28560405160405180910390a25b505050505050565b600a6020528060005260406000206000915090508054610bef90611bc4565b80601f0160208091040260200160405190810160405280929190818152602001828054610c1b90611bc4565b8015610c685780601f10610c3d57610100808354040283529160200191610c68565b820191906000526020600020905b815481529060010190602001808311610c4b57829003601f168201915b505050505081565b60606000600d541115610d2057600860008381526020019081526020016000208054610c9b90611bc4565b80601f0160208091040260200160405190810160405280929190818152602001828054610cc790611bc4565b8015610d145780601f10610ce957610100808354040283529160200191610d14565b820191906000526020600020905b815481529060010190602001808311610cf757829003601f168201915b50505050509050610d33565b6040518060200160405280600081525090505b919050565b600b6020528060005260406000206000915090508060000154908060010154905082565b6000600860008581526020019081526020016000208054610d7c90611bc4565b905014610dbe576040517f08c379a0000000000000000000000000000000000000000000000000000000008152600401610db590611de2565b60405180910390fd5b80600860008581526020019081526020016000209080519060200190610de592919061131d565b50600d6000815480929190610df990611e31565b9190505550610e3d826040518060400160405280600681526020017f64697265637400000000000000000000000000000000000000000000000000008152506110ad565b15610ea1576004600b600085815260200190815260200160002060008201548160000155600182015481600101556002820181600201908054610e819291906113a3565b506003820181600301908054610e989291906113a3565b50905050610f41565b610ee0826040518060400160405280600881526020017f696e6469726563740000000000000000000000000000000000000000000000008152506110ad565b15610f40576004600c600085815260200190815260200160002060008201548160000155600182015481600101556002820181600201908054610f249291906113a3565b506003820181600301908054610f3b9291906113a3565b509050505b5b827fd14b1b0eb4351463b9dbfe9a37ce075a1e9e05c6b05781e977ccc277facc4aa460405160405180910390a2505050565b80600a60008481526020019081526020016000209080519060200190610f9a92919061131d565b50600f6000815480929190610fae90611e31565b91905055505050565b60008060000154908060010154905082565b80600960008481526020019081526020016000209080519060200190610ff092919061131d565b50600e600081548092919061100490611e31565b91905055505050565b6008602052806000526040600020600091509050805461102c90611bc4565b80601f016020809104026020016040519081016040528092919081815260200182805461105890611bc4565b80156110a55780601f1061107a576101008083540402835291602001916110a5565b820191906000526020600020905b81548152906001019060200180831161108857829003601f168201915b505050505081565b6000816040516020016110c09190611eb6565b60405160208183030381529060405280519060200120836040516020016110e79190611eb6565b6040516020818303038152906040528051906020012014905092915050565b60048060000154908060010154905082565b60606000600f5411156111c857600a6000838152602001908152602001600020805461114390611bc4565b80601f016020809104026020016040519081016040528092919081815260200182805461116f90611bc4565b80156111bc5780601f10611191576101008083540402835291602001916111bc565b820191906000526020600020905b81548152906001019060200180831161119f57829003601f168201915b505050505090506111db565b6040518060200160405280600081525090505b919050565b60606000600e5411156112905760096000838152602001908152602001600020805461120b90611bc4565b80601f016020809104026020016040519081016040528092919081815260200182805461123790611bc4565b80156112845780601f1061125957610100808354040283529160200191611284565b820191906000526020600020905b81548152906001019060200180831161126757829003601f168201915b505050505090506112a3565b6040518060200160405280600081525090505b919050565b6040518060800160405280600081526020016000815260200160608152602001606081525090565b82805482825590600052602060002090810192821561130c579160200282015b8281111561130b5782518255916020019190600101906112f0565b5b50905061131991906113f5565b5090565b82805461132990611bc4565b90600052602060002090601f01602090048101928261134b5760008555611392565b82601f1061136457805160ff1916838001178555611392565b82800160010185558215611392579182015b82811115611391578251825591602001919060010190611376565b5b50905061139f91906113f5565b5090565b8280548282559060005260206000209081019282156113e45760005260206000209182015b828111156113e35782548255916001019190600101906113c8565b5b5090506113f191906113f5565b5090565b5b8082111561140e5760008160009055506001016113f6565b5090565b6000604051905090565b600080fd5b600080fd5b600080fd5b600080fd5b6000601f19601f8301169050919050565b7f4e487b7100000000000000000000000000000000000000000000000000000000600052604160045260246000fd5b61147982611430565b810181811067ffffffffffffffff8211171561149857611497611441565b5b80604052505050565b60006114ab611412565b90506114b78282611470565b919050565b600067ffffffffffffffff8211156114d7576114d6611441565b5b6114e082611430565b9050602081019050919050565b82818337600083830152505050565b600061150f61150a846114bc565b6114a1565b90508281526020810184848401111561152b5761152a61142b565b5b6115368482856114ed565b509392505050565b600082601f83011261155357611552611426565b5b81356115638482602086016114fc565b91505092915050565b6000819050919050565b61157f8161156c565b811461158a57600080fd5b50565b60008135905061159c81611576565b92915050565b600080604083850312156115b9576115b861141c565b5b600083013567ffffffffffffffff8111156115d7576115d6611421565b5b6115e38582860161153e565b92505060206115f48582860161158d565b9150509250929050565b6116078161156c565b82525050565b600081519050919050565b600082825260208201905092915050565b6000819050602082019050919050565b600061164583836115fe565b60208301905092915050565b6000602082019050919050565b60006116698261160d565b6116738185611618565b935061167e83611629565b8060005b838110156116af5781516116968882611639565b97506116a183611651565b925050600181019050611682565b5085935050505092915050565b60006080830160008301516116d460008601826115fe565b5060208301516116e760208601826115fe565b50604083015184820360408601526116ff828261165e565b91505060608301518482036060860152611719828261165e565b9150508091505092915050565b6000602082019050818103600083015261174081846116bc565b905092915050565b60006020828403121561175e5761175d61141c565b5b600061176c8482850161158d565b91505092915050565b61177e8161156c565b82525050565b60006040820190506117996000830185611775565b6117a66020830184611775565b9392505050565b600081519050919050565b600082825260208201905092915050565b60005b838110156117e75780820151818401526020810190506117cc565b838111156117f6576000848401525b50505050565b6000611807826117ad565b61181181856117b8565b93506118218185602086016117c9565b61182a81611430565b840191505092915050565b6000602082019050818103600083015261184f81846117fc565b905092915050565b600067ffffffffffffffff82111561187257611871611441565b5b602082029050602081019050919050565b600080fd5b600061189b61189684611857565b6114a1565b905080838252602082019050602084028301858111156118be576118bd611883565b5b835b818110156118e757806118d3888261158d565b8452602084019350506020810190506118c0565b5050509392505050565b600082601f83011261190657611905611426565b5b8135611916848260208601611888565b91505092915050565b60008060008060008060c0878903121561193c5761193b61141c565b5b600087013567ffffffffffffffff81111561195a57611959611421565b5b61196689828a0161153e565b965050602061197789828a0161158d565b955050604061198889828a0161158d565b945050606061199989828a0161158d565b935050608087013567ffffffffffffffff8111156119ba576119b9611421565b5b6119c689828a016118f1565b92505060a087013567ffffffffffffffff8111156119e7576119e6611421565b5b6119f389828a016118f1565b9150509295509295509295565b600080600060608486031215611a1957611a1861141c565b5b6000611a278682870161158d565b935050602084013567ffffffffffffffff811115611a4857611a47611421565b5b611a548682870161153e565b925050604084013567ffffffffffffffff811115611a7557611a74611421565b5b611a818682870161153e565b9150509250925092565b60008060408385031215611aa257611aa161141c565b5b6000611ab08582860161158d565b925050602083013567ffffffffffffffff811115611ad157611ad0611421565b5b611add8582860161153e565b9150509250929050565b60008060408385031215611afe57611afd61141c565b5b600083013567ffffffffffffffff811115611b1c57611b1b611421565b5b611b288582860161153e565b925050602083013567ffffffffffffffff811115611b4957611b48611421565b5b611b558582860161153e565b9150509250929050565b60008115159050919050565b611b7481611b5f565b82525050565b6000602082019050611b8f6000830184611b6b565b92915050565b7f4e487b7100000000000000000000000000000000000000000000000000000000600052602260045260246000fd5b60006002820490506001821680611bdc57607f821691505b60208210811415611bf057611bef611b95565b5b50919050565b60008160001c9050919050565b6000819050919050565b6000611c20611c1b83611bf6565b611c03565b9050919050565b611c308161156c565b82525050565b6000611c428383611c27565b60208301905092915050565b600081549050919050565b600081905092915050565b60008190508160005260206000209050919050565b6000611c858254611c0d565b9050919050565b6000600182019050919050565b6000611ca482611c4e565b611cae8185611c59565b9350611cb983611c64565b8060005b83811015611cf157611cce82611c79565b611cd88882611c36565b9750611ce383611c8c565b925050600181019050611cbd565b5085935050505092915050565b6000611d0a8383611c99565b905092915050565b60008083016000808401549050611d2881611c0d565b611d328682611c36565b95505060018401549050611d4581611c0d565b611d4f8682611c36565b95505060028401611d608682611cfe565b95505060038401611d718682611cfe565b955050849250505092915050565b6000611d8b8284611d12565b915081905092915050565b7f5573657220616c72656164792065786973747300000000000000000000000000600082015250565b6000611dcc6013836117b8565b9150611dd782611d96565b602082019050919050565b60006020820190508181036000830152611dfb81611dbf565b9050919050565b7f4e487b7100000000000000000000000000000000000000000000000000000000600052601160045260246000fd5b6000611e3c8261156c565b91507fffffffffffffffffffffffffffffffffffffffffffffffffffffffffffffffff821415611e6f57611e6e611e02565b5b600182019050919050565b600081905092915050565b6000611e90826117ad565b611e9a8185611e7a565b9350611eaa8185602086016117c9565b80840191505092915050565b6000611ec28284611e85565b91508190509291505056fea2646970667358221220a64a1cedc2d4b578b9921f0e9b2263bf02e8fc20bba9d06eae6c127fad1fcfea64736f6c634300080b0033",
  "immutableReferences": {},
  "source": "pragma solidity >= 0.8.11 <= 0.8.11;\n\ncontract AuthPrivacyChain {\n    \n    struct RsaAccumulator {\n        uint256 a0;\n        uint256 N;\n        uint256[] user_ids;\n        uint256[] nonces; \n    }\n\n    RsaAccumulator public acc;\n    RsaAccumulator public default_acc;\n    mapping(uint256 => string) public  datausers;\n    mapping(uint256 => string) public directsharing;\n    mapping(uint256 => string) public indirectsharing;\n    mapping(uint256 => RsaAccumulator) public ds_acc_mapping;\n    mapping(uint256 => RsaAccumulator) public ids_acc_mapping;\n\n    uint userNum = 0;\n    uint dsNum = 0;\n    uint idsNum = 0;\n\n    event DataUserCreated(uint256 indexed user_id);\n    event AccumulatorCreated(RsaAccumulator indexed acc);\n\n    function compareStrings(string memory a, string memory b) public pure returns (bool) {\n        return (keccak256(abi.encodePacked((a))) == keccak256(abi.encodePacked((b))));\n    }\n\n    //add user details who are registered to access IOT and user password will be encrypted with sha512\t\n    function createDataUser(uint256 user_id, string memory user_type, string memory du) public {\n        require(bytes(datausers[user_id]).length == 0, \"User already exists\");\n        \n        // Create user entry\n        datausers[user_id] = du;\t\n        userNum++;\n\n        \n        // Initialize both direct and indirect sharing accumulators\n        if (compareStrings(user_type, \"direct\")) {\n            ds_acc_mapping[user_id] = default_acc;\n        } else if (compareStrings(user_type, \"indirect\")) {\n            ids_acc_mapping[user_id] = default_acc;\n        }\n        \n        emit DataUserCreated(user_id);\n    }\n   //get user details\n    function getDataUser(uint256 user_id) public view returns (string memory) {\n        if (userNum > 0) {\n            return datausers[user_id];\n        }\n        return \"\";\n    }\n\n    function setDirectSharing(uint256 user_id,string memory ds) public {\n        directsharing[user_id] =ds;\n        dsNum++;\n    }\n\n    function getDirectSharing(uint256 user_id) public view returns (string memory) {\n        if (dsNum > 0) {\n            return directsharing[user_id];\n        }\n        return \"\";\n    }\n\n    function setInDirectSharing(uint256 user_id,string memory ds) public {\n        indirectsharing[user_id] = ds;\n        idsNum++;\n    }\n\n    function getInDirectSharing(uint256 user_id) public view returns (string memory) {\n        if (idsNum > 0) {\n            return indirectsharing[user_id];\n        }\n        return \"\";\n    }\n\n    function getAccumulator(string memory user_type, uint256 user_id) public view returns (RsaAccumulator memory) {\n        if (compareStrings(user_type, \"direct\")) {\n            if (ds_acc_mapping[user_id].N == 0) {\n                return default_acc;\n            }\n            return ds_acc_mapping[user_id];\n        } else if (compareStrings(user_type, \"indirect\")) {\n            if (ids_acc_mapping[user_id].N == 0) {\n                return default_acc;\n            }\n            return ids_acc_mapping[user_id];\n        }\n        return acc;\n    }\n\n    function setAccumulator(string memory user_type, uint256 user_id, uint256 a0, uint256 N, uint256[] memory user_ids, uint256[] memory nonces) public {\n        if (compareStrings(user_type, \"direct\")) {\n            RsaAccumulator memory ds_acc;\n            ds_acc.a0 = a0;\n            ds_acc.N = N;\n            ds_acc.user_ids = user_ids;\n            ds_acc.nonces = nonces;\n            ds_acc_mapping[user_id] = ds_acc;\n\n            return;\n        } else if (compareStrings(user_type, \"indirect\")) {\n            RsaAccumulator memory ids_acc;\n            ids_acc.a0 = a0;\n            ids_acc.N = N;\n            ids_acc.user_ids = user_ids;\n            ids_acc.nonces = nonces;\n            ids_acc_mapping[user_id] = ids_acc;\n\n            return;\n        }\n        acc.a0 = a0;\n        acc.N = N;\n        acc.user_ids = user_ids;\n        acc.nonces = nonces;\n        emit AccumulatorCreated(acc);\n    }\n\n    constructor() {\n        // Initialize the global accumulator with default values\n        acc.a0=50288727366554689944573622666380926638627053994442510168273113567069886874581;\n        acc.N=56676326342099385763132335423605869458942667779217078150541017090654611257191;\n        acc.user_ids = new uint256[](0);\n        acc.nonces = new uint256[](0);  \n\n        // Initialize default values in mappings for new users\n        default_acc.a0 = acc.a0;\n        default_acc.N = acc.N;\n        default_acc.user_ids = new uint256[](0);\n        default_acc.nonces = new uint256[](0);\n    }\n}",
  "sourcePath": "/Users/prishu_rana/Documents/Coding/BTP/AuthPrivacyChain/contracts/AuthPrivacyChain.sol",
  "compiler": {
    "name": "solc",
    "version": "0.8.11+commit.d7f03943.Emscripten.clang"
  },
  "schemaVersion": "3.4.16",
  "updatedAt": "2025-05-15T16:35:43.360Z",
  "networkType": "ethereum",
  "devdoc": {
    "kind": "dev",
    "methods": {},
    "version": 1
  },
  "userdoc": {
    "kind": "user",
    "methods": {},
    "version": 1
  }
}